:020000040000FA
:100000000C945E000C9486000C9486000C94860080
:100010000C9486000C9486000C9486000C94860048
:100020000C9486000C9445050C9486000C94860074
:100030000C9486000C9486000C9486000C94860028
:100040000C94FB040C9486000C94C9040C94A30437
:100050000C9486000C9486000C9486000C94860008
:100060000C9486000C948600000000080002010039
:100070000003040700000000000000000000000072
:10008000250028002B0000000000240027002A0083
:10009000040404040404040402020202020203032E
:1000A0000303030301020408102040800102040836
:1000B000102001020408102029072A0911241FBE5C
:1000C000CFEFD8E0DEBFCDBF11E0A0E0B1E0E6EEBB
:1000D000F5E102C005900D92A03FB107D9F722E0EB
:1000E000A0EFB1E001C01D92A23CB207E1F710E021
:1000F000CDE5D0E004C02197FE010E94BB09CC35BC
:10010000D107C9F70E9471070C94E60A0C9400000D
:1001100090E0FC01EC55FF4F249180579F4FFC016C
:100120008491882399F090E0880F991FFC01EA5789
:10013000FF4FA591B491FC01E458FF4F8591949134
:100140008FB7F894EC91E22BEC938FBF0895AF92A8
:10015000BF92CF92DF92EF92FF920F931F93CF93B4
:10016000DF936C017B018B01040F151FEB015E0116
:10017000AE18BF08C017D10759F06991D601ED91AB
:10018000FC910190F081E02DC6010995892B79F74A
:10019000C501DF91CF911F910F91FF90EF90DF90FC
:1001A000CF90BF90AF900895FC01538D448D252FC3
:1001B00030E0842F90E0821B930B541710F0CF9601
:1001C000089501970895FC01918D828D981761F033
:1001D000A28DAE0FBF2FB11D5D968C91928D9F5F4A
:1001E0009F73928F90E008958FEF9FEF0895FC0129
:1001F000918D828D981731F0828DE80FF11D858DDC
:1002000090E008958FEF9FEF0895FC01918D228D6E
:10021000892F90E0805C9F4F821B91098F739927F3
:10022000089581E092E00E94050121E0892B09F404
:1002300020E0822F089580E090E0892B29F00E9431
:10024000110181110C9400000895FC01A48DA80FE8
:10025000B92FB11DA35ABF4F2C91848D90E0019608
:100260008F739927848FA689B7892C93A089B18928
:100270008C91837080648C93938D848D981306C0C9
:100280000288F389E02D80818F7D80830895EF922D
:10029000FF920F931F93CF93DF93EC0181E0888F40
:1002A0009B8D8C8D98131AC0E889F989808185FF10
:1002B00015C09FB7F894EE89FF896083E889F989B2
:1002C00080818370806480839FBF81E090E0DF91B4
:1002D000CF911F910F91FF90EF900895F62E0B8D07
:1002E00010E00F5F1F4F0F731127E02E8C8D8E11C2
:1002F0000CC00FB607FCFACFE889F989808185FF29
:10030000F5CFCE010E942501F1CFEB8DEC0FFD2F33
:10031000F11DE35AFF4FF0829FB7F8940B8FEA89E3
:10032000FB8980818062CFCFCF93DF93EC01888DF2
:100330008823B9F0AA89BB89E889F9898C9185FD60
:1003400003C0808186FD0DC00FB607FCF7CF8C91EE
:1003500085FFF2CF808185FFEDCFCE010E94250180
:10036000E9CFDF91CF9108953FB7F8948091F801DC
:100370009091F901A091FA01B091FB0126B5A89BDB
:1003800005C02F3F19F00196A11DB11D3FBFBA2F27
:10039000A92F982F8827BC01CD01620F711D811DE7
:1003A000911D42E0660F771F881F991F4A95D1F76C
:1003B00008958F929F92AF92BF92CF92DF92EF9269
:1003C000FF920E94B4014B015C0188EEC82E83E0CD
:1003D000D82EE12CF12C0E94B401681979098A0900
:1003E0009B09683E734081059105A8F321E0C21A7C
:1003F000D108E108F10888EE880E83E0981EA11C60
:10040000B11CC114D104E104F10429F7FF90EF906D
:10041000DF90CF90BF90AF909F908F9008952091E4
:10042000F5013091F601F90181919FEB980F9A3116
:1004300040F43093F6012093F501805E08959F010A
:10044000F2CF803239F4232BD1F7F093F601E09309
:10045000F50108953093F6012093F50108951F9357
:10046000CF93DF930E940F02D0E0C0E01AE090ED3E
:10047000980F9A30B8F41C9F90011D9F300D1124E5
:10048000E901C80FD11D87FDDA95E0978091F5014C
:100490009091F60101969093F6018093F5010E94E8
:1004A0000F02E5CFCE01DF91CF911F9108952F92DA
:1004B0003F924F925F926F927F928F929F92AF92F4
:1004C000BF92CF92DF92EF92FF920F931F93CF9341
:1004D000DF9300D000D01F92CDB7DEB77A83698357
:1004E0004B832091F201211112C021E02093F201EF
:1004F0001092700021E22093B0002BE02093B10015
:100500002AEF2093B3001092B400539A789410927B
:1005100009013324339497FF03C09F773AE0332EC9
:1005200028E2329E202D112430E03D832C83821757
:10053000930760F021E09D838C83321207C08131E4
:10054000974220F080E197E29D838C83832C912C4D
:10055000B12CA12C4C805D8056944794712C612C59
:100560002C813D816901F12CE12CA501940160E40D
:1005700072E48FE090E00E943009640D751D861DC5
:10058000971DA70196010E946009890122E0222E91
:100590000F3F110501F1F8F02394E22DF0E0EE0F8A
:1005A000FF1FE85DFE4F2081318150E040E060E0B8
:1005B00072E18AE790E00E946009C501B4010E94DF
:1005C0003009640D751D861D971DA70196010E94B7
:1005D00060098901DDCF3AE0331209C08C819D8129
:1005E00005966AE070E00E944C097D836C838C81E3
:1005F0009D81883E23E0920769F029813A81DC01E0
:100600000E947F0928EE33E040E050E00E9460093C
:100610003A832983109270008091B100887F282A44
:100620002092B1000093B3008B81803108F08FE0FD
:1006300020E130E0281B310902C0169507952A9564
:10064000E2F70093B40089819A819093F40180933A
:10065000F30187B38FEF87BB81E0809370000F9029
:100660000F900F900F900F90DF91CF911F910F91EE
:10067000FF90EF90DF90CF90BF90AF909F908F90C2
:100680007F906F905F904F903F902F9008958EBD18
:1006900000000DB407FEFDCF8EB508950F931F9394
:1006A000CF93DF93E091B702F091B8028EEA808396
:1006B000E091B702F091B80281EC8183E091B7023A
:1006C000F091B8028091BB028283E091B702F09171
:1006D000B8028091BC0283831091BC021C5F009120
:1006E000B702C02F8091B802D82F8C2F801B8117A2
:1006F00020F489910E944703F8CF812F90E0DF9189
:10070000CF911F910F910895FC0101900020E9F70E
:100710003197AF01481B590BBC0181E092E00C946A
:10072000A700CF92DF92EF92FF920F931F93CF9388
:10073000DF93C0E010E0D0E08FE5E82EF12C80E000
:100740000E944703382F2C2F2F3A91EC390791F54F
:1007500081E08093BD02C091B702D091B802809130
:10076000BD02882309F459C08E010C5F1F4F80E041
:100770000E94470389930C171D07C9F7E091B70240
:10078000F091B80280818093BB02F180F092BC02AC
:10079000C280D380EE2ECE2FDF2F10E000E08C2F12
:1007A0008E198F1560F580E00E9447038993080F2A
:1007B000111DF5CF2E3A314C19F41092BD02CBCF5A
:1007C000D430D0F0143098F08AE491E00E94840391
:1007D0008DE591E00E9484038FEF9FEFDF91CF9131
:1007E0001F910F91FF90EF90DF90CF900895F70148
:1007F0003197F1F71F5FD0E0DF5FC82FA0CFC016A1
:10080000D10649F180E691E00E9484038DE591E0F4
:100810000E9484038DEF9FEFE1CF80E00E944703A9
:10082000888380E00E9447038983E091B702F091BA
:10083000B80280818093BB0211811093BC020E2FFD
:10084000CE2FDF2F8C2F801B811728F480E00E9491
:1008500047038993F7CF90E080E0C0CFE091B902E1
:10086000F091BA02918380837383628384E08093E2
:10087000BC0282E18093BB020E944E030E9491035E
:10088000892B71F48091BB02813051F48091BC02BC
:10089000843031F4E091B702F091B802808108957C
:1008A0008FEF0895E091B902F091BA028083E09150
:1008B000B902F091BA026183E091B902F091BA02F3
:1008C000428383E08093BC0284E18093BB020E9458
:1008D0004E030E949103892B71F48091BB028130F9
:1008E00051F48091BC02843031F4E091B702F09170
:1008F000B802808108958FEF0895E091B902F091D8
:10090000BA028083E091B902F091BA02618382E079
:100910008093BC0286E18093BB020E944E030E943A
:100920009103892B71F48091BB02813051F4809145
:10093000BC02843031F4E091B702F091B8028081BA
:1009400008958FEF08951F920F920FB60F92112402
:100950002F933F934F935F936F937F938F939F93C7
:10096000AF93BF93EF93FF9381E092E00E94250144
:10097000FF91EF91BF91AF919F918F917F916F9177
:100980005F914F913F912F910F900FBE0F901F904D
:1009900018951F920F920FB60F9211242F938F93D9
:1009A0009F93EF93FF93E0911102F09112028081E7
:1009B000E0911702F091180282FD1BC09081809196
:1009C0001A028F5F8F7320911B02821741F0E09112
:1009D0001A02F0E0EF5FFD4F958F80931A02FF91AE
:1009E000EF919F918F912F910F900FBE0F901F90BD
:1009F00018958081F4CF1F920F920FB60F92112499
:100A00002F933F938F939F93AF93BF938091FC015C
:100A10009091FD01A091FE01B091FF013091F7018D
:100A200023E0230F2D3758F50196A11DB11D20930A
:100A3000F7018093FC019093FD01A093FE01B09318
:100A4000FF018091F8019091F901A091FA01B09114
:100A5000FB010196A11DB11D8093F8019093F9014E
:100A6000A093FA01B093FB01BF91AF919F918F9139
:100A70003F912F910F900FBE0F901F90189526E871
:100A8000230F0296A11DB11DD2CF1F920F920FB658
:100A90000F9211244F925F926F927F928F929F924A
:100AA000AF92BF92CF92DF92EF92FF920F931F937C
:100AB0002F933F934F935F936F937F938F939F9366
:100AC000AF93BF93CF93DF93EF93FF93C091F30165
:100AD000D091F401CE0101979093F4018093F3013A
:100AE000209749F51092700078948091B100887F2A
:100AF00083608093B1008AEF8093B3001092B400BA
:100B000081E0809309018091F5019091F601892B94
:100B100091F0709008018091F101882369F1609152
:100B2000F001662349F170E040E088EE93E00E9416
:100B300057021092F001FF91EF91DF91CF91BF9199
:100B4000AF919F918F917F916F915F914F913F9165
:100B50002F911F910F91FF90EF90DF90CF90BF905A
:100B6000AF909F908F907F906F905F904F900F907D
:100B70000FBE0F901F90189555245394F0ECAF2E94
:100B8000FDE5BF2EAAE04A2EB4E06B2E10EDC12E7B
:100B900017E0D12E04E0E02EF12C04EF11E08FE0FD
:100BA000882E912C0E940F022091F5013091F601C0
:100BB0002F5F3F4F3093F6012093F501853609F4FE
:100BC0006FC00CF043C0813609F4B1C004F58C331A
:100BD00009F464C08E3309F45FC0813209F03FC06C
:100BE00060920801D0920501C0920401F0920701C1
:100BF000E09206011093030100930201909201011B
:100C0000809200011092F101E4E07E2ECBCF83367A
:100C100009F490C010E00BE0843614F010E002E01C
:100C20005CE0759E000D11240E940F02982F977FA3
:100C3000933209F081C08091F5019091F6010196FF
:100C40009093F6018093F5010F5FEECF8D3609F496
:100C500042C054F4873651F134F18C3651F1109280
:100C6000F6011092F50167CF823709F449C044F4C8
:100C70008F36A9F70E942F02782E8093080192CF19
:100C8000843709F440C0863751F70E942F029093B1
:100C900001018093000186CF739484CF7A9482CF30
:100CA00010E004E0BDCF10E005E0BACF10E007E0AF
:100CB000B7CF0E942F02BC019093070180930601D9
:100CC00080910401909105010E944C0970930301E9
:100CD0006093020167CF0E940F028C3661F410927C
:100CE000F1018091F5019091F60101969093F60142
:100CF0008093F50157CF5092F1011092F001F1CF9E
:100D000011E000E08DCF0E942F02BC01C5010E94BE
:100D10004C09469EC001479E900D112490930501F9
:100D2000809304016091060170910701CDCF10E01E
:100D300009E076CF10E0E5CF8D3269F48091F501BE
:100D40009091F60101969093F6018093F501015080
:100D50000E940F02F1CF8153E0900201F090030155
:100D6000883058F4E0900401F09005010E942F02B1
:100D7000BC01C7010E944C097B016701D694C7944E
:100D80000E940F028E3261F48091F5019091F6017C
:100D900001969093F6018093F501EC0CFD1CEECFCB
:100DA0008091F101882339F0C7019695879580934A
:100DB000F001E81AF10840910001111104C00F3F41
:100DC00011F0411107C040E0B70188EE93E00E94A6
:100DD0005702B1CE013128F010EF100F103608F095
:100DE0001FE5812F6CE00E944009682F54EF5603E5
:100DF00090011124210F311D2C30310538F4220FC0
:100E0000331FF901E05FFE4FC081D1818730B9F017
:100E1000082E02C0CC0FDD1F0A94E2F7823040F0AA
:100E2000CE0105966AE070E00E944C09CB0102C039
:100E3000CE019058403108F04FE0B701C8CFCE0145
:100E400026E0880F991F2A95E1F7029665E070E089
:100E5000EBCFCF93DF93E1E0F2E01382128288EED2
:100E600093E0A0E0B0E084839583A683B7838CE30E
:100E700091E09183808385EC90E09587848784EC72
:100E800090E09787868780EC90E0918B808B81EC57
:100E900090E0938B828B82EC90E0958B848B86EC38
:100EA00090E0978B868B118E128E138E148ECEE966
:100EB000D2E0DA87C987DD8BCC8BDF8BCE8B84E0E9
:100EC00091E00E94C1099A8F898F04969C8F8B8F25
:100ED0001D821C821B821A8219821882DF91CF9197
:100EE0000895789484B5826084BD84B5816084BDA2
:100EF00085B5826085BD85B5816085BD80916E00B8
:100F0000816080936E0010928100809181008260E8
:100F10008093810080918100816080938100809125
:100F200080008160809380008091B1008460809314
:100F3000B1008091B00081608093B00080917A0010
:100F4000846080937A0080917A00826080937A0036
:100F500080917A00816080937A0080917A00806825
:100F600080937A001092C100E0911102F091120278
:100F700082E08083E0910D02F0910E021082E091F8
:100F80000F02F091100280E1808310921902E0912B
:100F90001502F091160286E08083E0911302F09131
:100FA0001402808180618083E0911302F091140229
:100FB000808188608083E0911302F0911402808127
:100FC00080688083E0911302F091140280818F7D0C
:100FD000808380E791E00E948403CFB7F8948091EA
:100FE0000002811146C08AE990E0FC0124914EEA9A
:100FF00050E0FA013491E22FF0E0EE0FFF1FEA57C4
:10100000FF4FA591B4912C91322321F5E2E7F0E056
:101010002491FA014491FC0194919923D9F022235F
:1010200059F0233009F4FBC008F0EEC0213009F478
:10103000FCC0223009F4FDC0E92FF0E0EE0FFF1FE5
:10104000E458FF4FA591B4918FB7F8949C91492B28
:101050004C938FBF8AE00E9488008CB580618CBD64
:101060008CB580648CBD8DE00E9488008BE00E946E
:101070008800809100028F5F80930002CFBF8DE5D2
:101080008CBD81E08DBD8FB7F894C090FC01D090ED
:10109000FD01E090FE01F090FF018FBF1EE0CBE16B
:1010A000DEE42FB7F8948091FC019091FD01A091AE
:1010B000FE01B091FF012FBF8C199D09AE09BF0938
:1010C00088389341A105B10508F041C01092BC02D7
:1010D0001093BB020E944E030E949103892B09F0DA
:1010E000B5C08091BB028F3009F0B0C08091B702CB
:1010F0009091B80290939F0280939E028091BC02CF
:1011000087FDA4C081E08093BC02E091B902F09118
:10111000BA0210828CE08093BB020E944E030E94B0
:101120009103892BA1F48091BB028D3081F4E09171
:10113000B702F091B802808191819093A1028093CF
:10114000A002828193819093A3028093A202C0E0C7
:10115000D0E070E060E090E080E00E942E0440E08B
:1011600060E08FEF0E9452048DE791E00E948403BB
:101170000E94D90164EF71E084EF91E00E942E0497
:1011800040E06FEF80E00E94520488E991E00E9405
:1011900084030E94D90168EE73E088EE93E00E9418
:1011A0002E044FEF60E080E00E94520486EB91E055
:1011B0000E9484030E94D90160E273E088EC90E011
:1011C0000E942E0481ED91E00E94840340E060E0E3
:1011D00080E00E9452040E94D90161E081E00E94F7
:1011E0007D040E94D90160E080E00E947D040E949D
:1011F000D901209709F4ADCF0E941101882309F489
:10120000A8CF0E940000A5CF2730B1F02830D1F040
:10121000243009F011CF809180008F7D03C0809130
:1012200080008F778093800007CF84B58F7784BD4F
:1012300003CF84B58F7DFBCF8091B0008F778093F3
:10124000B000FACE8091B0008F7DF9CFCE0101972A
:10125000F1F727CF8091B7029091B8020C945D0A04
:10126000DB018F939F930E948E09BF91AF91A29F44
:10127000800D911DA39F900DB29F900D1124089594
:10128000991B79E004C0991F961708F0961B881FD8
:101290007A95C9F780950895AA1BBB1B51E107C039
:1012A000AA1FBB1FA617B70710F0A61BB70B881FF6
:1012B000991F5A95A9F780959095BC01CD01089585
:1012C000052E97FB1EF400940E94770957FD07D066
:1012D0000E94990907FC03D04EF40C9477095095AD
:1012E0004095309521953F4F4F4F5F4F0895909512
:1012F0008095709561957F4F8F4F9F4F0895A29F66
:10130000B001B39FC001A39F700D811D1124911DD9
:10131000B29F700D811D1124911D08950E947F09B7
:10132000A59F900DB49F900DA49F800D911D112439
:101330000895A1E21A2EAA1BBB1BFD010DC0AA1F16
:10134000BB1FEE1FFF1FA217B307E407F50720F02E
:10135000A21BB30BE40BF50B661F771F881F991FA9
:101360001A9469F760957095809590959B01AC01F2
:10137000BD01CF010895EE0FFF1F0590F491E02D00
:1013800009940F931F93CF93DF938230910510F44C
:1013900082E090E0E091C002F091C10230E020E0F4
:1013A000B0E0A0E0309799F42115310509F44AC066
:1013B000281B390B24303105D8F58A819B816115B2
:1013C000710589F1FB0193838283FE0111C0408185
:1013D00051810281138148175907E0F048175907D6
:1013E00099F4109761F012960C93129713961C9330
:1013F0003296CF01DF91CF911F910F910895009305
:10140000C0021093C102F4CF2115310551F04217EB
:10141000530738F0A901DB019A01BD01DF01F80192
:10142000C1CFEF01F9CF9093C1028093C002CDCF1D
:10143000FE01E20FF31F819391932250310939830A
:101440002883D7CF2091BE023091BF02232B41F4D5
:1014500020910C0130910D013093BF022093BE0208
:1014600020910A0130910B012115310541F42DB76E
:101470003EB740910E0150910F01241B350BE091B6
:10148000BE02F091BF02E217F307A0F42E1B3F0B40
:101490002817390778F0AC014E5F5F4F24173507E6
:1014A00048F04E0F5F1F5093BF024093BE028193DE
:1014B00091939FCFF0E0E0E09CCFCF93DF93009734
:1014C000E9F0FC01329713821282A091C002B09120
:1014D000C102ED0130E020E01097A1F420813181BC
:1014E000820F931F2091BE023091BF022817390747
:1014F00009F061C0F093BF02E093BE02DF91CF918B
:101500000895EA01CE17DF07E8F54A815B819E0165
:1015100041155105B1F7E901FB83EA8349915991DE
:10152000C40FD51FEC17FD0761F4808191810296ED
:10153000840F951FE90199838883828193819B831E
:101540008A83F0E0E0E012968D919C9113970097CA
:10155000B9F52D913C911197CD010296820F931F01
:101560002091BE023091BF022817390739F6309713
:1015700051F51092C1021092C002B093BF02A09325
:10158000BE02BCCFD383C28340815181840F951F9B
:10159000C817D90761F44E5F5F4F88819981480F62
:1015A000591F518340838A819B81938382832115B4
:1015B000310509F0B0CFF093C102E093C0029ECF95
:1015C000FD01DC01C0CF13821282D7CF10E0CDE540
:1015D000D0E004C0FE010E94BB092196CE35D107A0
:1015E000C9F7F894FFCF0F00F401D00704000401FD
:1015F0000000C20280009C01B501CF01EA01070290
:101600002602470269028E02B502DE020A030000CA
:1016100001000800200040008000000100040000DC
:1016200000004701A700D40094010501E300F70082
:101630006572726F723A206E6F20726573706F6E92
:101640007365000D0A006572726F723A20636865F7
:10165000636B73756D005374617274696E672E2EBF
:101660002E0A0053657474696E6720736572766F15
:10167000206D696E20706F736974696F6E005365B9
:101680007474696E6720736572766F2063656E741B
:10169000657220706F736974696F6E00536574743E
:1016A000696E6720736572766F206D617820706F48
:1016B000736974696F6E0053657474696E67207323
:1016C0006572766F20637573746F6D20706F7369C8
:0616D00074696F6E00005A
:107E0000112484B714BE81FFF0D085E080938100F7
:107E100082E08093C00088E18093C10086E0809377
:107E2000C20080E18093C4008EE0C9D0259A86E02C
:107E300020E33CEF91E0309385002093840096BBD3
:107E4000B09BFECF1D9AA8958150A9F7CC24DD24C4
:107E500088248394B5E0AB2EA1E19A2EF3E0BF2EE7
:107E6000A2D0813461F49FD0082FAFD0023811F036
:107E7000013811F484E001C083E08DD089C08234E0
:107E800011F484E103C0853419F485E0A6D080C0E4
:107E9000853579F488D0E82EFF2485D0082F10E0AE
:107EA000102F00270E291F29000F111F8ED06801E7
:107EB0006FC0863521F484E090D080E0DECF843638
:107EC00009F040C070D06FD0082F6DD080E0C81688
:107ED00080E7D80618F4F601B7BEE895C0E0D1E017
:107EE00062D089930C17E1F7F0E0CF16F0E7DF06D8
:107EF00018F0F601B7BEE89568D007B600FCFDCFD4
:107F0000A601A0E0B1E02C9130E011968C91119780
:107F100090E0982F8827822B932B1296FA010C0160
:107F200087BEE89511244E5F5F4FF1E0A038BF0790
:107F300051F7F601A7BEE89507B600FCFDCF97BE46
:107F4000E89526C08437B1F42ED02DD0F82E2BD052
:107F50003CD0F601EF2C8F010F5F1F4F84911BD097
:107F6000EA94F801C1F70894C11CD11CFA94CF0C13
:107F7000D11C0EC0853739F428D08EE10CD085E9AC
:107F80000AD08FE07ACF813511F488E018D01DD067
:107F900080E101D065CF982F8091C00085FFFCCF94
:107FA0009093C60008958091C00087FFFCCF809118
:107FB000C00084FD01C0A8958091C6000895E0E648
:107FC000F0E098E1908380830895EDDF803219F02E
:107FD00088E0F5DFFFCF84E1DECF1F93182FE3DFCA
:107FE0001150E9F7F2DF1F91089580E0E8DFEE27F6
:047FF000FF270994CA
:027FFE00040479
:00000001FF
